:020000040000fa
:10000000f07f002065820000378400004d840000ee
:1000100000000000000000000000000000000000e0
:10002000000000000000000000000000f783000056
:100030000000000000000000f7830000f7830000cc
:10004000f7830000f7830000f7830000f7830000c8
:10005000f7830000f7830000817f0000f783000032
:10006000f7830000f7830000f7830000f7830000a8
:1000700079810000f7830000f7830000f783000018
:10008000f7830000f7830000f7830000f783000088
:10009000f7830000f7830000f7830000f783000078
:1000a000f7830000f7830000f7830000f783000068
:020000040000fa
:1000b000f8b5c046f8bc08bc9e46704745820000b3
:1000c000f8b5c046f8bc08bc9e4670471d820000cb
:020000040000fa
:1000d0002020202020202020202020202020202020
:1000e0002020202020202020202020202020202010
:1000f0002020202020202020202020202020202000
:1001000020202020202020202020202020202020ef
:1001100020202020202020202020202020202020df
:1001200020202020202020202020202020202020cf
:1001300020202020202020202020202020202020bf
:1001400020202020202020202020202020202020af
:10015000202020202020202020202020202020209f
:10016000202020202020202020202020202020208f
:10017000202020202020202020202020202020207f
:10018000202020202020202020202020202020206f
:10019000202020202020202020202020202020205f
:1001a000202020202020202020202020202020204f
:1001b000202020202020202020202020202020203f
:1001c000202020202020202020202020202020202f
:1001d000202020202020202020202020202020201f
:1001e0002020202020202020202009090920202054
:1001f000202020200d0a2020202020202020202028
:1002000020202020202020202020202020202020ee
:1002100020202020202020202020202020202020de
:1002200020202020202020202020202020202020ce
:1002300020202020202020202020202020202020be
:1002400020202020202020202020202020202020ae
:10025000202020202020202020202020202020209e
:10026000202020202020202020202020202020208e
:10027000202020202020202020202020202020207e
:10028000202020202020202020202020202020206e
:10029000202020202020202020202020202020205e
:1002a000202020202020202020202020202020204e
:1002b000202020202020202020202020202020203e
:1002c000202020202020202020202020202020202e
:1002d000202020202020202020202020202020201e
:1002e000202020202020202020202020202020200e
:1002f00020202020202020202020202020202020fe
:1003000020202020202020202020202020202020ed
:10031000090909202020202020200d0a202020204b
:1003200020202020202020202020202020202020cd
:1003300020202020202020202020202020202020bd
:1003400020202020202020202020202020202020ad
:10035000202020202020202020202020202020209d
:10036000202020202020202020202020202020208d
:10037000202020202020202020202020202020207d
:10038000202020202020202020202020202020206d
:10039000202020202020202020202020202020205d
:1003a000202020202020202020202020202020204d
:1003b000202020202020202020202020202020203d
:1003c000202020202020202020202020202020202d
:1003d000202020202020202020202020202020201d
:1003e000202020202020202020202020202020200d
:1003f00020202020202020202020202020202020fd
:1004000020202020202020202020202020202020ec
:1004100020202020202020202020202020202020dc
:1004200020202020202020202020202020202020cc
:100430002020202020200909092020202020202001
:100440000d0a2020202020202020202020202020d5
:10045000202020202020202020202020202020209c
:10046000202020202020202020202020202020208c
:10047000202020202020202020202020202020207c
:1004800020202020202020202020202040404040ec
:10049000404040404040404040202020202020203c
:1004a000202020202020202020202020202020204c
:1004b000202020202020202020202020202020203c
:1004c000202020202020202020202020202020202c
:1004d000202020202020202020202020202020201c
:1004e000202020202020202020202020202020200c
:1004f00020202020202020202020202020202020fc
:1005000020202020202020202020202020202020eb
:1005100020202020202020202020202020202020db
:1005200020202020202020202020202020202020cb
:1005300020202020202020202020202020202020bb
:1005400020202020202020202020202020202020ab
:10055000202020202020202020202020202020209b
:10056000202020202020202020202020202020208b
:10057000200d0a20202020202020202020202020a4
:10058000202020202020202020202020202020206b
:10059000202020202020202020202020202020205b
:1005a000202020202020202020202020202020204b
:1005b0002020202020202020404040404040252571
:1005c00040404040404040404040404020202020ab
:1005d000202020202020202020202020202020201b
:1005e000202020202020202020202020202020200b
:1005f00020202020202020202020202020202020fb
:1006000020202020202020202020202020202020ea
:1006100020202020202020202020202020202020da
:1006200020202020202020202020202020202020ca
:1006300020202020202020202020202020202020ba
:1006400020202020202020202020202020202020aa
:10065000202020202020202020202020202020209a
:10066000202020202020202020202020202020208a
:10067000202020202020202020202020202020207a
:10068000202020202020202020202020202020206a
:10069000202020202020202020202020202020205a
:1006a00020200d0a20202020202020202020202073
:1006b000202020202020202020202020202020203a
:1006c000202020202020202020202020202020202a
:1006d000202020202020202020202020202020201a
:1006e0002020202020204040404025232a3d2b234d
:1006f0004040404025254040404040404040202070
:1007000020202020202020202020202020202020e9
:1007100020202020202020202020202020202020d9
:1007200020202020202020202020202020202020c9
:1007300020202020202020202020202020202020b9
:1007400020202020202020202020202020202020a9
:100750002020202020202020202020202020202099
:100760002020202020202020202020202020202089
:100770002020202020202020202020202020202079
:100780002020202020202020202020202020202069
:100790002020202020202020202020202020202059
:1007a0002020202020202020202020202020202049
:1007b0002020202020202020202020202020202039
:1007c0002020202020202020202020202020202029
:1007d0002020200d0a202020202020202020202042
:1007e0002020202020202020202020202020202009
:1007f00020202020202020202020202020202020f9
:1008000020202020404040404040404040402020a8
:100810002020202040404040252a3d3d3d3d2340b2
:10082000404040402a234040254040404040404016
:1008300020202020202020202020202020202020b8
:1008400020202020202020202020202020202020a8
:100850002020202020202020202020202020202098
:100860002020202020202020202020202020202088
:100870002020202020202020202020202020202078
:100880002020202020202020202020202020202068
:100890002020202020202020202020202020202058
:1008a0002020202020202020202020202020202048
:1008b0002020202020202020202020202020202038
:1008c0002020202020202020202020202020202028
:1008d0002020202020202020202020202020202018
:1008e0002020202020202020202020202020202008
:1008f00020202020202020202020202020202020f8
:10090000202020200d0a2020202020202020202010
:1009100020202020202020202020202020202020d7
:1009200020202020202020202020202020202020c7
:1009300020404040404040404040404040404040d7
:1009400040202040404040232b3d3d3d3d2b40403a
:10095000404040253d2b4040232b25402a25404048
:100960004020202020202020202020202020202067
:100970002020202020202020202020202020202077
:100980002020202020202020202020202020202067
:100990002020202020202020202020202020202057
:1009a0002020202020202020202020202020202047
:1009b0002020202020202020202020202020202037
:1009c0002020202020202020202020202020202027
:1009d0002020202020202020202020202020202017
:1009e0002020202020202020202020202020202007
:1009f00020202020202020202020202020202020f7
:100a000020202020202020202020202020202020e6
:100a100020202020202020202020202020202020d6
:100a200020202020202020202020202020202020c6
:100a300020202020200d0a202020202020202020df
:100a400020202020202020202020202020202020a6
:100a50002020202020202020202020202020202096
:100a600040404040252325404040404040404040d9
:100a70004040404040232b3d3d3d3d3d3d234040d7
:100a80004040402a2d2b25402a3d2b40253d40400b
:100a90004040202020202020204040404020202096
:100aa0002020202020202020202020202020202046
:100ab0002020202020202020202020202020202036
:100ac0002020202020202020202020202020202026
:100ad0002020202020202020202020202020202016
:100ae0002020202020202020202020202020202006
:100af00020202020202020202020202020202020f6
:100b000020202020202020202020202020202020e5
:100b100020202020202020202020202020202020d5
:100b200020202020202020202020202020202020c5
:100b300020202020202020202020202020202020b5
:100b400020202020202020202020202020202020a5
:100b50002020202020202020202020202020202095
:100b60002020202020200d0a2020202020202020ae
:100b70002020202020202020202020202020202075
:100b80002020202020202020202020202020404025
:100b90004040233d3d2a404040404040404040408e
:100ba00040404040402a3d3d3d3d3d3d3d2540408b
:100bb0004040403d2d3d2a252b2d3d23402b2b40f1
:100bc0004040402020202020404040404040202005
:100bd0002020202020202020202020202020202015
:100be0002020202020202020202020202020202005
:100bf00020202020202020202020202020202020f5
:100c000020202020202020202020202020202020e4
:100c100020202020202020202020202020202020d4
:100c200020202020202020202020202020202020c4
:100c300020202020202020202020202020202020b4
:100c400020202020202020202020202020202020a4
:100c50002020202020202020202020202020202094
:100c60002020202020202020202020202020202084
:100c70002020202020202020202020202020202074
:100c80002020202020202020202020202020202064
:100c9000202020202020200d0a202020202020207d
:100ca0002020202020202020202020202020202044
:100cb00020202020202020202020202020404040d4
:100cc000252b3d2d3d23404040402a2b40402b25e5
:100cd00040402a404040233d3d3d3d3d2b25402a9c
:100ce0004040253d2d2d3d2b3d2d2d2b252b3d2ae7
:100cf0004040404020202040404040402020404094
:100d00004040404020202020202020202020202063
:100d100020202020202020202020202020202020d3
:100d200020202020202020202020202020202020c3
:100d300020202020202020202020202020202020b3
:100d400020202020202020202020202020202020a3
:100d50002020202020202020202020202020202093
:100d60002020202020202020202020202020202083
:100d70002020202020202020202020202020202073
:100d80002020202020202020202020202020202063
:100d90002020202020202020202020202020202053
:100da0002020202020202020202020202020202043
:100db0002020202020202020202020202020202033
:100dc00020202020202020200d0a2020202020204c
:100dd0002020202020202020202020202020202013
:100de00020202020202020202020202040404023a0
:100df0003d2d2d2d2b25404040402b3d2540232dc2
:100e00002540233d2a4040252b3d3d3d2b25402bb1
:100e10002a402a3d2d2d2d2d2d2d2d2d3d3d2d2dc5
:100e2000254040402020204040404020404040405d
:100e30004040404020202020202020202020202032
:100e400020202020202020202020202020202020a2
:100e50002020202020202020202020202020202092
:100e60002020202020202020202020202020202082
:100e70002020202020202020202020202020202072
:100e80002020202020202020202020202020202062
:100e90002020202020202020202020202020202052
:100ea0002020202020202020202020202020202042
:100eb0002020202020202020202020202020202032
:100ec0002020202020202020202020202020202022
:100ed0002020202020202020202020202020202012
:100ee0002020202020202020202020202020202002
:100ef0002020202020202020200d0a20202020201b
:100f000020202020202020202020202020202020e1
:100f10002020202020202020202020404040233d51
:100f20002d2d2d2d2b40404040252b2d2b40403d7d
:100f30002d2540232d2b254040233d3d2b25402aa8
:100f40003d232b2d2d2d2d2d2d2d2d2d2d2d2d2dcd
:100f50003d2a234040202040404020404040404027
:100f60004040202040404040404040402020202041
:100f70002020202020202020202020202020202071
:100f80002020202020202020202020202020202061
:100f90002020202020202020202020202020202051
:100fa0002020202020202020202020202020202041
:100fb0002020202020202020202020202020202031
:100fc0002020202020202020202020202020202021
:100fd0002020202020202020202020202020202011
:100fe0002020202020202020202020202020202001
:100ff00020202020202020202020202020202020f1
:1010000020202020202020202020202020202020e0
:1010100020202020202020202020202020202020d0
:10102000202020202020202020200d0a20202020e9
:1010300020202020202020202020202020202020b0
:1010400020202020202020202020204040252b2d43
:101050002d2d2d2d2b40404040252b2d3d25402a68
:101060003d2d23402a2d3d234040402a3d23402a48
:101070003d2d2d2d2d2d2d2d2d2d2d2d2d2d2d2d90
:101080002d2d3d2540202040404020404040404004
:101090002020404040404040404040402020202010
:1010a0002020202020202020202020202020202040
:1010b0002020202020202020202020202020202030
:1010c0002020202020202020202020202020202020
:1010d0002020202020202020202020202020202010
:1010e0002020202020202020202020202020202000
:1010f00020202020202020202020202020202020f0
:1011000020202020202020202020202020202020df
:1011100020202020202020202020202020202020cf
:1011200020202020202020202020202020202020bf
:1011300020202020202020202020202020202020af
:10114000202020202020202020202020202020209f
:1011500020202020202020202020200d0a202020b8
:10116000202020202020202020202020202020207f
:10117000202020202020202020204040402a3d2ddb
:101180002d2d2d2d3d25404040252b2d2d2b40254f
:101190003d2d2d23403d2d2d2b233d232323402367
:1011a0003d2d2d2d2d2d2d2d2d2d2d2d2d2d2d2d5f
:1011b0002d2d2d2340402020404020404040402005
:1011c000404040404040402020202020202020203f
:1011d000202020202020202020202020202020200f
:1011e00020202020202020202020202020202020ff
:1011f00020202020202020202020202020202020ef
:1012000020202020202020202020202020202020de
:1012100020202020202020202020202020202020ce
:1012200020202020202020202020202020202020be
:1012300020202020202020202020202020202020ae
:10124000202020202020202020202020202020209e
:10125000202020202020202020202020202020208e
:10126000202020202020202020202020202020207e
:10127000202020202020202020202020202020206e
:101280002020202020202020202020200d0a202087
:10129000202020202020202020202020202020204e
:1012a000202020202020202020204040402a3d2daa
:1012b0002d2d2d2d3d23404040402a2d2d2d232521
:1012c0002b2d2d2d2b3d2d2d2d3d3d3d23404025fe
:1012d0002b2d2d3d2b2a2325252525404040252338
:1012e0002a2b3d3d2540404040404040402040406a
:1012f000404040402020202020202020202020206e
:1013000020202020202020202020202020202020dd
:1013100020202020202020202020202020202020cd
:1013200020202020202020202020202020202020bd
:1013300020202020202020202020202020202020ad
:10134000202020202020202020202020202020209d
:10135000202020202020202020202020202020208d
:10136000202020202020202020202020202020207d
:10137000202020202020202020202020202020206d
:10138000202020202020202020202020202020205d
:10139000202020202020202020202020202020204d
:1013a000202020202020202020202020202020203d
:1013b000202020202020202020202020200d0a2056
:1013c000202020202020202020202020202020201d
:1013d000202020202020202020204040402a3d2d79
:1013e0002d2d2d2d2d2b402523402a2d2d2d3d2318
:1013f0002b2d2d2d2d2d2d2d2d2d2d2d2d2a4040fc
:10140000232a232525232b3d3d2d2d2d2d3d3d2b01
:101410002a2325404040232a232540404040404085
:10142000404020202020202020202020202020207c
:1014300020202020202020202020202020202020ac
:10144000202020202020202020202020202020209c
:10145000202020202020202020202020202020208c
:10146000202020202020202020202020202020207c
:10147000202020202020202020202020202020206c
:10148000202020202020202020202020202020205c
:10149000202020202020202020202020202020204c
:1014a000202020202020202020202020202020203c
:1014b000202020202020202020202020202020202c
:1014c000202020202020202020202020202020201c
:1014d000202020202020202020202020202020200c
:1014e00020202020202020202020202020200d0a25
:1014f00020202020202020202020202020202020ec
:10150000202020202020202020202040402a3d2d67
:101510002d2d2d2d2d3d25402a23233d2d2d2d3dd7
:101520003d2d2d2d2d2d2d2d2d2d2d2d2d2d2a40cb
:101530004040252a3d2d2d2d2d2d2d2d2d2d2d2db0
:101540002d2d2d2d3d2a2540233d2b25404040406b
:1015500040404040402020202020202020202020eb
:10156000202020202020202020202020202020207b
:10157000202020202020202020202020202020206b
:10158000202020202020202020202020202020205b
:10159000202020202020202020202020202020204b
:1015a000202020202020202020202020202020203b
:1015b000202020202020202020202020202020202b
:1015c000202020202020202020202020202020201b
:1015d000202020202020202020202020202020200b
:1015e00020202020202020202020202020202020fb
:1015f00020202020202020202020202020202020eb
:1016000020202020202020202020202020202020da
:101610002020202020202020202020202020200ddd
:101620000a202020202020202020202020202020d0
:1016300020202020202020202020204040233d2d3d
:101640002d2d2d2d2d2d2b40252b233d2d2d2d2dbd
:101650002d2d2d2d2d2d3d2b2a23252525252325eb
:101660004040233d2d2d2d2d2d2d2d2d2d2d2d2d7e
:101670002d2d2d2d2d2d2d2d3d2340232b2b2325a1
:10168000404040404040404040202020202020203a
:10169000202020202020202020202020202020204a
:1016a000202020202020202020202020202020203a
:1016b000202020202020202020202020202020202a
:1016c000202020202020202020202020202020201a
:1016d000202020202020202020202020202020200a
:1016e00020202020202020202020202020202020fa
:1016f00020202020202020202020202020202020ea
:1017000020202020202020202020202020202020d9
:1017100020202020202020202020202020202020c9
:1017200020202020202020202020202020202020b9
:1017300020202020202020202020202020202020a9
:101740002020202020202020202020202020202099
:101750000d0a2020202020202020202020202020b2
:1017600020202020202020202020202040402b2d21
:101770002d2d2d2d2d2d2d25402b3d3d2d2d2d2d70
:101780002d2d2d2d3d2a25402525232a2a2a2a2a9a
:101790002325254040252a2b3d2d2d2d2d2d2d2d6a
:1017a0002d2d2d2d2d2d2d2d2d2d2d3d2a40402a39
:1017b0002b2b2340404040404040404040202020d0
:1017c0002020202020202020202020202020202019
:1017d0002020202020202020202020202020202009
:1017e00020202020202020202020202020202020f9
:1017f00020202020202020202020202020202020e9
:1018000020202020202020202020202020202020d8
:1018100020202020202020202020202020202020c8
:1018200020202020202020202020202020202020b8
:1018300020202020202020202020202020202020a8
:101840002020202020202020202020202020202098
:101850002020202020202020202020202020202088
:101860002020202020202020202020202020202078
:101870002020202020202020202020202020202068
:10188000200d0a2020202020202020202020202081
:101890002020202020202020202020204040233de8
:1018a0002d2d2d2d2d2d2d3d40403d2d2d2d2d2d22
:1018b0002d2d3d2b2340232b2d2d2d2d2d2d2d2d4d
:1018c0002d2d2d2d2d3d2a254040232b3d2d2d2d19
:1018d0002d2d2d2d2d2d2d2d2d2d2d2d2d2d3d2a2b
:1018e000404040404040252a23402a3d2a40404075
:1018f00040404040404040404020202020202020c8
:1019000020202020202020202020202020202020d7
:1019100020202020202020202020202020202020c7
:1019200020202020202020202020202020202020b7
:1019300020202020202020202020202020202020a7
:101940002020202020202020202020202020202097
:101950002020202020202020202020202020202087
:101960002020202020202020202020202020202077
:101970002020202020202020202020202020202067
:101980002020202020202020202020202020202057
:101990002020202020202020202020202020202047
:1019a0002020202020202020202020202020202037
:1019b00020200d0a20202020202020202020202050
:1019c00020202020202020202020202020404023d4
:1019d0003d2d2d2d2d2d2d2d2b40252d2d2d2d2d1e
:1019e0002d2d3d23402a3d2d2d2d2d2d2d2d2d2d01
:1019f0002d2d2d2d2d2d2d2d2d2d2b254040233df5
:101a00002d2d2d2d2d2d2d2d2d2d2d2d2d2d2d2d06
:101a10002d3d2340402a3d2a25233d2d3d2a2525c5
:101a20003d3a2e2e2e2e3a2b2540404020202020bd
:101a300020202020202020202020202020202020a6
:101a40002020202020202020202020202020202096
:101a50002020202020202020202020202020202086
:101a60002020202020202020202020202020202076
:101a70002020202020202020202020202020202066
:101a80002020202020202020202020202020202056
:101a90002020202020202020202020202020202046
:101aa0002020202020202020202020202020202036
:101ab0002020202020202020202020202020202026
:101ac0002020202020202020202020202020202016
:101ad0002020202020202020202020202020202006
:101ae0002020200d0a20202020202020202020201f
:101af00020202020202020202020202020204040a6
:101b00002a2d2d2d2d2d2d2d2d2a40232d2d2d2d02
:101b10002d3d2a40233d2d2d2d2d2d2d2d2d2d2dcf
:101b20002d2d2d2d2d2d2d2d2d2d2d2d2d3d2a40c5
:101b300040253d2d2d2d2d2d2d2d2d2d2d2d2d2dba
:101b40002d2d2d2d2b254040232b3d2d2a40233a92
:101b50002e2e2e2e2e2d2b3a2e2e3a2a404020208d
:101b60002020202020202020202020202020202075
:101b70002020202020202020202020202020202065
:101b80002020202020202020202020202020202055
:101b90002020202020202020202020202020202045
:101ba0002020202020202020202020202020202035
:101bb0002020202020202020202020202020202025
:101bc0002020202020202020202020202020202015
:101bd0002020202020202020202020202020202005
:101be00020202020202020202020202020202020f5
:101bf00020202020202020202020202020202020e5
:101c000020202020202020202020202020202020d4
:101c1000202020200d0a20202020202020202020ed
:101c20002020202020202020202020202020404074
:101c3000402a2d2d2d2d2d2d2d2d23402a2d2d2dbe
:101c40002d3d2340233d2d2d2d2d2d2d2d2d2d2da5
:101c50002d2d2d2d2d2d2d2d2d2d2d2d2d2d2d2db4
:101c60003d2b4040253d2d2d2d2d2d2d2d2d2d2d68
:101c70002d2d2d2d2d2d3d2a40402b2340402d2e46
:101c80002e2e2e2e2e2e3a3d3a2e2e2e2e2d254045
:101c90004020202020202020202020202020202024
:101ca0002020202020202020202020202020202034
:101cb0002020202020202020202020202020202024
:101cc0002020202020202020202020202020202014
:101cd0002020202020202020202020202020202004
:101ce00020202020202020202020202020202020f4
:101cf00020202020202020202020202020202020e4
:101d000020202020202020202020202020202020d3
:101d100020202020202020202020202020202020c3
:101d200020202020202020202020202020202020b3
:101d300020202020202020202020202020202020a3
:101d400020202020200d0a202020404040404040fc
:101d500040404040404020202020202020202040a3
:101d600040402a2d2d2d2d2d2d2d2d2340232d2d81
:101d70002d2b2540233d2d2d2d2d2d2d2d2d2d2d84
:101d80002d2d2d2d2d2d2d2d2d2d2d2d2d2d2d2d83
:101d90002d2d2d3d2a40402a3d2d2d2d2d2d2d2d33
:101da0002d2d2d2d2d2d2d2d2d2b254040252d2e4e
:101db0002d402a2e2e2e2e2e2e2e2e3a2b2b3a3d15
:101dc00040402020202020202020202020202020d3
:101dd0002020202020202020202020202020202003
:101de00020202020202020202020202020202020f3
:101df00020202020202020202020202020202020e3
:101e000020202020202020202020202020202020d2
:101e100020202020202020202020202020202020c2
:101e200020202020202020202020202020202020b2
:101e300020202020202020202020202020202020a2
:101e40002020202020202020202020202020202092
:101e50002020202020202020202020202020202082
:101e60002020202020202020202020202020202072
:101e70002020202020200d0a20202020404040400b
:101e80004040404040404040404020202020202012
:101e90004040402a2d2d2d2d2d2d2d2d2340232a40
:101ea00040404040252b2d2d2d2d2d2d2d2d2d2d20
:101eb0002d2d2d2d2d2d2d2d2d2d2d2d2d2d2d2d52
:101ec0002d2d2d2d2d2d3d2340252b2d2d2d2d2d33
:101ed0002d2d2d2d2d2d2d2d2d2d2d3d23402a3a0f
:101ee0002e2e3a2e2e2e2e2e2e2e2e2e3a3d2d3ae0
:101ef0003a25404020202020202020202020202083
:101f000020202020202020202020202020202020d1
:101f100020202020202020202020202020202020c1
:101f200020202020202020202020202020202020b1
:101f300020202020202020202020202020202020a1
:101f40002020202020202020202020202020202091
:101f50002020202020202020202020202020202081
:101f60002020202020202020202020202020202071
:101f70002020202020202020202020202020202061
:101f80002020202020202020202020202020202051
:101f90002020202020202020202020202020202041
:101fa000202020202020200d0a20202040404040da
:101fb0004040404040404040404040404040202061
:101fc000204040252b2d2d2d2d2d2d2d2d23404016
:101fd000252b2b2540233d2d2d2d2d2d2d2d2d2d2c
:101fe0002d2d2d2d2d2d2d2d2d2d2d2d2d2d2d2d21
:101ff0002d2d2d2d2d2d2d2d3d2a40402a3d2d2dd1
:102000002d2d2d2d2d2d2d2d2d2d2d2d2d3d2340e7
:102010002b3a2e2e2e2e2e2e3a2d3a2e2e2e2e2ec0
:102020002e2d254040202020202020202020202050
:1020300020202020202020202020202020202020a0
:102040002020202020202020202020202020202090
:102050002020202020202020202020202020202080
:102060002020202020202020202020202020202070
:102070002020202020202020202020202020202060
:102080002020202020202020202020202020202050
:102090002020202020202020202020202020202040
:1020a0002020202020202020202020202020202030
:1020b0002020202020202020202020202020202020
:1020c0002020202020202020202020202020202010
:1020d00020202020202020200d0a202040404040a9
:1020e0004040404040404040404040402040404010
:1020f000404040252b3d2d2d2d2d2d2d2d2d2a40c1
:10210000233d2d2b25252b2d2d2d2d2d2d2d2d2d0d
:102110002d2d2d2d2d2d2d2d2d2d2d2d2d2d2d2def
:102120002d2d2d2d2d2d2d2d2d2d2d2b2540233dd0
:102130002d2d2d2d2d2d2d2d2d2d2d2d2d2d2d3dbf
:1021400023402b3a2e2e2e2e2e3a2d23253d2e2e99
:102150002e3a2a404020202020202020202020200d
:10216000202020202020202020202020202020206f
:10217000202020202020202020202020202020205f
:10218000202020202020202020202020202020204f
:10219000202020202020202020202020202020203f
:1021a000202020202020202020202020202020202f
:1021b000202020202020202020202020202020201f
:1021c000202020202020202020202020202020200f
:1021d00020202020202020202020202020202020ff
:1021e00020202020202020202020202020202020ef
:1021f00020202020202020202020202020202020df
:102200002020202020202020200d0a2020204040b7
:1022100040404040404040404040404040404040be
:102220004040402a3d2a2a3d2d2d2d2d2d2d2d3d7e
:102230002b2d2d2d2b40253d2d2d2d2d2d2d2d2db7
:102240002d2d2d2d2d2d2d2d2d2d2d2d2d2d2d2dbe
:102250002d2d2d2d2d2d2d2d2d2d2d2d2d3d254093
:10226000233d2d2d2d2d2d2d2d2d2d2d2d2d2d2d98
:102270002d3d23403d2e2e2e2e2d2a3d3d25232d56
:102280003a2d2340404040202020202020202020a4
:10229000202020202020202020202020202020203e
:1022a000202020202020202020202020202020202e
:1022b000202020202020202020202020202020201e
:1022c000202020202020202020202020202020200e
:1022d00020202020202020202020202020202020fe
:1022e00020202020202020202020202020202020ee
:1022f00020202020202020202020202020202020de
:1023000020202020202020202020202020202020cd
:1023100020202020202020202020202020202020bd
:1023200020202020202020202020202020202020ad
:10233000202020202020202020200d0a2040404066
:10234000404040404040404040404040404040408d
:10235000404040404040252b2d2d2d2d2d2d2d2d45
:102360002d2d2d2d2d2b40233d2d2d2d2d2d2d2d86
:102370002d2d2d2d2d2d2d2d2d2d2d2d2d2d2d2d8d
:102380002d2d2d2d2d2d2d2d2d2d2d2d2d2d2d3d6d
:102390002540233d2d2d2d2d2d2d2d2d2d2d2d2d5c
:1023a0002d2d2d3d25403a2e2e2e3a3d2340233d06
:1023b0002d3d2b2b2a25404040202020202020206e
:1023c000202020202020202020202020202020200d
:1023d00020202020202020202020202020202020fd
:1023e00020202020202020202020202020202020ed
:1023f00020202020202020202020202020202020dd
:1024000020202020202020202020202020202020cc
:1024100020202020202020202020202020202020bc
:1024200020202020202020202020202020202020ac
:10243000202020202020202020202020202020209c
:10244000202020202020202020202020202020208c
:10245000202020202020202020202020202020207c
:1024600020202020202020202020200d0a40404035
:10247000404040404040404040404040404040405c
:10248000404040404040252b3d2a2a3d2d2d2d2dfa
:102490002d2d2d2d2d2d2b40233d2d2d2d2d2d2d55
:1024a0002d2d2d2d2d2d2d2d2d2d2d2d2d2d2d2d5c
:1024b0002d2d2d2d2d2d2d2d2d2d2d2d2d2d2d2d4c
:1024c0002d3d2540233d2d2d2d2d2d2d2d2d2d2d1b
:1024d0002d2d2d2d2d2a402a2e2e2e2e2e3a2b2517
:1024e0002a3d2d2b254040404040402020202020e8
:1024f00020202020202020202020202020202020dc
:1025000020202020202020202020202020202020cb
:1025100020202020202020202020202020202020bb
:1025200020202020202020202020202020202020ab
:10253000202020202020202020202020202020209b
:10254000202020202020202020202020202020208b
:10255000202020202020202020202020202020207b
:10256000202020202020202020202020202020206b
:10257000202020202020202020202020202020205b
:10258000202020202020202020202020202020204b
:102590002020202020202020202020200d0a204044
:1025a000402020202020202020202020202020200b
:1025b000404040404040252b2b23233d3d2d2d2dd9
:1025c0002d2d2d2d2d2d2d2b40233d2d2d2d2d2d24
:1025d0002d2d2d2d2d2d2d2d2d2d2d2d2d2d2d2d2b
:1025e0002d2d2d2d2d2d2d2d2d2d2d2d2d2d2d2d1b
:1025f0002d2d2d3d25402a2d2d2d2d2d2d2d2d2df3
:102600002d2d2d2d2d2d3d25403a2e2e2e2e2e2ecc
:102610002d23233d3d2a232b2540404040202020d0
:1026200020202020202020202020202020202020aa
:10263000202020202020202020202020202020209a
:10264000202020202020202020202020202020208a
:10265000202020202020202020202020202020207a
:10266000202020202020202020202020202020206a
:10267000202020202020202020202020202020205a
:10268000202020202020202020202020202020204a
:10269000202020202020202020202020202020203a
:1026a000202020202020202020202020202020202a
:1026b000202020202020202020202020202020201a
:1026c000202020202020202020202020200d0a2033
:1026d00020202020202020202020202020202020fa
:1026e000204040404040252b2b25232b232b2d2bf6
:1026f0003d2d2d2d2d2d2d2d2b40252b2d2d2d2df3
:102700002d2d2d2d2d2d2d2d2d2d2d2d2d2d2d2df9
:102710002d2d2d2d2d2d2d2d2d2d2d2d2d2d2d2de9
:102720002d2d2d2d2d2b40403d2d2d2d2d2d2d2da5
:102730002d2d2d2d2d2d2d2d2a402a2e2e2e2e2eb7
:102740002e2e2d23233d2d3d2d3d253d2340402084
:102750002020202020202020202020202020202079
:102760002020202020202020202020202020202069
:102770002020202020202020202020202020202059
:102780002020202020202020202020202020202049
:102790002020202020202020202020202020202039
:1027a0002020202020202020202020202020202029
:1027b0002020202020202020202020202020202019
:1027c0002020202020202020202020202020202009
:1027d00020202020202020202020202020202020f9
:1027e00020202020202020202020202020202020e9
:1027f00020202020202020202020202020200d0a02
:1028000020202020202020202020202020202020c8
:10281000204040404040252b3d25232a232b2d2bb3
:102820002a3d2d2d2d2d2d2d2d2b25402a2d2d2dc5
:102830002d2d2d2d2d2d2d2d2d2d2d2d2d2d2d2dc8
:102840002d2d2d2d2d2d2d2d2d2d2d2d2d2d2d2db8
:102850002d2d2d2d2d2d2d2a40253d2d2d2d2d2d90
:102860002d2d2d2d2d2d2d2d2d2b40402e2e2e2e70
:102870002e2e2e2e2d232a3d2d2d2d2d2d2d40405b
:102880004020202020202020202020202020202028
:102890002020202020202020202020202020202038
:1028a0002020202020202020202020202020202028
:1028b0002020202020202020202020202020202018
:1028c0002020202020202020202020202020202008
:1028d00020202020202020202020202020202020f8
:1028e00020202020202020202020202020202020e8
:1028f00020202020202020202020202020202020d8
:1029000020202020202020202020202020202020c7
:1029100020202020202020202020202020202020b7
:102920002020202020202020202020202020200dba
:102930000a202020202020202020202020202020ad
:10294000204040404040402b3d2a252b232a3d2d4e
:102950002a3d2d2d2d3d3d3d3d3d3d2340233d2d2b
:102960002d2d2d2d2d2d2d2d2d2d2d2d2d2d2d2d97
:102970002d2d2d2d2d2d2d2d2d2d2d2d2d2d2d2d87
:102980002d2d2d2d2d2d2d2d2d25402a2d2d2d2d6f
:102990002d2d2d2d2d2d2d2d2d2d2d40402d2e2e3f
:1029a0002e2e2e2e2e2e3d252b3d2d2d2d2d2a402b
:1029b00040402020202020202020202020202020d7
:1029c0002020202020202020202020202020202007
:1029d00020202020202020202020202020202020f7
:1029e00020202020202020202020202020202020e7
:1029f00020202020202020202020202020202020d7
:102a000020202020202020202020202020202020c6
:102a100020202020202020202020202020202020b6
:102a200020202020202020202020202020202020a6
:102a30002020202020202020202020202020202096
:102a40002020202020202020202020202020202086
:102a50002020202020202020202020202020202076
:102a60000d0a20202020202020202020202020208f
:102a7000202040404040402a2d2b252a2b2a2b2d58
:102a80002d2d3d2b23404040404040404040252bd1
:102a90002d2d2d2d2d2d2d2d2d2d2d2d2d2d2d2d66
:102aa0002d2d2d2d2d2d2d2d2d2d2d2d2d2d2d2d56
:102ab0002d2d2d2d2d2d2d2d2d2d2b40403d2d2d12
:102ac0002d2d2d2d2d2d2d2d2d2d2d2d25402b2e2c
:102ad0002e2e2e2e2e2e2e2e2a253d2d2d2d2d2521
:102ae0004040404020202020202020202020202066
:102af00020202020202020202020202020202020d6
:102b000020202020202020202020202020202020c5
:102b100020202020202020202020202020202020b5
:102b200020202020202020202020202020202020a5
:102b30002020202020202020202020202020202095
:102b40002020202020202020202020202020202085
:102b50002020202020202020202020202020202075
:102b60002020202020202020202020202020202065
:102b70002020202020202020202020202020202055
:102b80002020202020202020202020202020202045
:102b9000200d0a202020202020202020202020205e
:102ba00020202040402540252d3d2a253d2d2d2d3e
:102bb0002d3d254040232b3a2e2e3a2d2a404040d1
:102bc0002a3d2d2d2d2d2d2d2d2d2d2d2d2d2d2d28
:102bd0002d2d2d2d2d2d2d2d2d2d2d2d2d2d2d2d25
:102be0002d2d2d2d2d2d2d2d2d2d2d2d25402b2d0c
:102bf0002d2d2d2d2d2d2d2d2d2d2d2d2d23402aff
:102c00002e2e2e2e2e2e2e2e2e2d252a3d3d2d2bd8
:102c10002b40404040202020202020202020202029
:102c200020202020202020202020202020202020a4
:102c30002020202020202020202020202020202094
:102c40002020202020202020202020202020202084
:102c50002020202020202020202020202020202074
:102c60002020202020202020202020202020202064
:102c70002020202020202020202020202020202054
:102c80002020202020202020202020202020202044
:102c90002020202020202020202020202020202034
:102ca0002020202020202020202020202020202024
:102cb0002020202020202020202020202020202014
:102cc00020200d0a2020202020202020202020202d
:102cd0002020204040252d252b2d2d3d3d2d2d2d17
:102ce0003d2a40252d2e2e2e2e3a2a3a2e2e2d23e9
:102cf00040252b2d2d2d2d2d2d2d2d2d2d2d2d2dfb
:102d00002d2d2d2d2d2d2d2d2d2d2d2d2d2d2d2df3
:102d10002d2d2d2d2d2d2d2d2d2d2d2d2d2b4023dc
:102d20002d2d2d2d2d2d2d2d2d2d2d2d2d2d2a40c3
:102d30002a2e2e2e2e2e2e2e2e2e2e23233d232bcc
:102d40002a252540404040202020202020202020ef
:102d50002020202020202020202020202020202073
:102d60002020202020202020202020202020202063
:102d70002020202020202020202020202020202053
:102d80002020202020202020202020202020202043
:102d90002020202020202020202020202020202033
:102da0002020202020202020202020202020202023
:102db0002020202020202020202020202020202013
:102dc0002020202020202020202020202020202003
:102dd00020202020202020202020202020202020f3
:102de00020202020202020202020202020202020e3
:102df0002020200d0a2020202020202020202020fc
:102e00002020202040402a2d3d2d2d2d2d2d2d2df3
:102e10003d23403d3a2e2e2e2e2e2e2d3a2e2e2e96
:102e20002d2340233d2d2d2d2d2d2d2d2d2d2d2dc3
:102e30002d2d2d2d2d2d2d2d2d2d2d2d2d2d2d2dc2
:102e40002d2d2d2d2d2d2d2d2d2d2d2d2d2d2d409f
:102e5000402d2d2d2d2d2d2d2d2d2d2d3d2a254077
:102e6000402b2e2e2e2e2e2e2e2e2e2e2b253d2b73
:102e7000252b40254040404020202020202020209d
:102e80002020202020202020202020202020202042
:102e90002020202020202020202020202020202032
:102ea0002020202020202020202020202020202022
:102eb0002020202020202020202020202020202012
:102ec0002020202020202020202020202020202002
:102ed00020202020202020202020202020202020f2
:102ee00020202020202020202020202020202020e2
:102ef00020202020202020202020202020202020d2
:102f000020202020202020202020202020202020c1
:102f100020202020202020202020202020202020b1
:102f2000202020200d0a20202020202020202020ca
:102f3000202020202040402b2d2d2d2d2d2d2d2dde
:102f40003d23232d2e2d232b3a2e2e2e2e2e2e2eac
:102f50002e2e3d25402a3d2d2d2d2d2d2d2d2d2d77
:102f60002d2d2d2d2d2d2d2d2d2d2d2d2d2d2d2d91
:102f70002d2d2d2d2d2d2d2d2d2d2d2d2d2d2d2d81
:102f800023403d2d2d2d2d2d2d3d2b2540232d3a3c
:102f900040402d2e2e2e2e2e2e2e2e2e2e2b402b22
:102fa0002b403d4025404040402020202020202034
:102fb0002020202020202020202020202020202011
:102fc0002020202020202020202020202020202001
:102fd00020202020202020202020202020202020f1
:102fe00020202020202020202020202020202020e1
:102ff00020202020202020202020202020202020d1
:1030000020202020202020202020202020202020c0
:1030100020202020202020202020202020202020b0
:1030200020202020202020202020202020202020a0
:103030002020202020202020202020202020202090
:103040002020202020202020202020202020202080
:1030500020202020200d0a20202020202020202099
:1030600020202020204040402b3d3d2d2d2d2d2d7a
:103070003d2a232d2e2e2e3a3a2e2e2e2e2e2e2e59
:103080002e2e2e2e3d40402b2d2d2d2d2d2d2d2d38
:103090002d2d2d2d2d2d2d2d2d2d2d2d2d2d2d2d60
:1030a0002d2d2d2d2d2d2d2d2d2d2d2d2d2d2d2d50
:1030b0002d2a402b2d2d2d3d232540232d2e2e2036
:1030c0002b40232e2e2e2e2e2e2e2e2e2e2e2a400e
:1030d0003d3d403d252340404040402020202020d1
:1030e00020202020202020202020202020202020e0
:1030f00020202020202020202020202020202020d0
:1031000020202020202020202020202020202020bf
:1031100020202020202020202020202020202020af
:10312000202020202020202020202020202020209f
:10313000202020202020202020202020202020208f
:10314000202020202020202020202020202020207f
:10315000202020202020202020202020202020206f
:10316000202020202020202020202020202020205f
:10317000202020202020202020202020202020204f
:103180002020202020200d0a202020202020202068
:103190002020202020204040403d2a402d2d2d2d54
:1031a0002d2b233d2e2e2e2e2e2e2e2e2e2e2e2d40
:1031b000233d2e2e2e2e2b40402b2d2d2d2d2d2d13
:1031c0002d2d2d2d2d2d2d2d2d2d2d2d2d2d2d2d2f
:1031d0002d2d2d2d2d2d2d2d2d2d2d2d2d2d2d2d1f
:1031e0002d2d2b40232a25404040252d2e20202008
:1031f0003d40403a2e2e2e2e2e2e2e2e2e2e3a23af
:10320000253d2d3d2d252a404040404020202020b6
:1032100020202020202020202020202020202020ae
:10322000202020202020202020202020202020209e
:10323000202020202020202020202020202020208e
:10324000202020202020202020202020202020207e
:10325000202020202020202020202020202020206e
:10326000202020202020202020202020202020205e
:10327000202020202020202020202020202020204e
:10328000202020202020202020202020202020203e
:10329000202020202020202020202020202020202e
:1032a000202020202020202020202020202020201e
:1032b000202020202020200d0a2020202020202037
:1032c000202020202020204040402b25403d3d2b29
:1032d0003d3d23232d2e2e2e2e2e2e2e2e2e2e3df8
:1032e00040252d2a2a3a2e2e3d25402b3d2d2d2dd1
:1032f0002d2d2d2d2d2d2d2d2d2d2d2d2d2d2d2dfe
:103300002d2d2d2d2d2d2d2d2d2d2d2d2d2d2d2ded
:103310003d2b23404040404040402a3a2e20202070
:103320002d25402d2e2e2e2e2e2e2e2e2e2e2e2bb9
:10333000402a3d2d2d2d253d40404040402020205d
:10334000202020202020202020404040404040409d
:10335000404040202020202020202020202020200d
:10336000202020202020202020202020202020205d
:10337000202020202020202020202020202020204d
:10338000202020202020202020202020202020203d
:10339000202020202020202020202020202020202d
:1033a000202020202020202020202020202020201d
:1033b000202020202020202020202020202020200d
:1033c00020202020202020202020202020202020fd
:1033d00020202020202020202020202020202020ed
:1033e00020202020202020200d0a20202020202006
:1033f00020202020202020204040404040403d3dd3
:10340000252a2b25232d3a2a2a3a2e2e2e2e2e2ef1
:103410002d254040402b2e2e2e2e2d25402a3d2d91
:103420002d2d2d2d2d2d2d2d2d2d2d2d2d2d2d2dcc
:103430002d2d2d2d2d2d2d2d2d2d2d2d3d3d2a23a9
:1034400025252b2d2b403d2e3a3a2e2e2020202ea6
:103450003d25233a2e2e2e2e2e2e2e2e2e2e2e3d76
:1034600025253d2d2d2d2d2d3d252a404040404028
:10347000404040404040404040404025232a2a23cd
:1034800023254040404040404040404040202020d4
:10349000202020202020202020202020202020202c
:1034a000202020202020202020202020202020201c
:1034b000202020202020202020202020202020200c
:1034c00020202020202020202020202020202020fc
:1034d00020202020202020202020202020202020ec
:1034e00020202020202020202020202020202020dc
:1034f00020202020202020202020202020202020cc
:1035000020202020202020202020202020202020bb
:103510002020202020202020200d0a2020202020d4
:103520002020202020202020204040404040402bd0
:103530003d40252b40402b3a2e2e2e2e2e2e2e2e69
:103540002e3a2d3d2a402b2e2e2e2e2e3a2340236e
:103550003d2d2d2d2d2d2d2d2d2d2d2d2d2d2d2d8b
:103560002d2d2d2d2d2d2d2d3d2b2a232540402376
:103570003d3a2e20203d403a20202020202e2e2d86
:103580002a233d3a2e2e2e2e2e2e2e2e2e2e2e2d50
:1035900025252b2d2d2d2d2d2d2d3d2b4040402330
:1035a0002a2b2b2b2b2a234040403d2d2d2d2d2d1a
:1035b0002d2d2d3d2a2540402a2b2b2325404040f0
:1035c00040202020202020202020202020202020db
:1035d00020202020202020202020202020202020eb
:1035e00020202020202020202020202020202020db
:1035f00020202020202020202020202020202020cb
:1036000020202020202020202020202020202020ba
:1036100020202020202020202020202020202020aa
:10362000202020202020202020202020202020209a
:10363000202020202020202020202020202020208a
:10364000202020202020202020200d0a20202020a3
:1036500020202020202020202020204040404040ca
:103660002a3d2325234040402a2d3a2e2e2e2e3a45
:103670003a2d2d2d2d2b402b2e2e2e2e2e2e2e2b59
:1036800040402b2d2d2d2d2d2d2d2d2d2d2d2d2d46
:103690002d2d2d3d2b2b2a232540404040402b3af9
:1036a0002e202020202e23402a2b2325404040403e
:1036b00040233a2e2e2e2e2e2e2e2e2e2e2e2e3d08
:1036c00025252b2d2d2d2d2d2d2d2d3d2340252b2d
:1036d0002d2d2d2d2d2d2d2d3d2340253d2d2d2df9
:1036e0002d2d2d2d2d2d3d23402a3d2d2d2d2b25ee
:1036f000404040202020202020202020202020206a
:1037000020202020202020202020202020202020b9
:1037100020202020202020202020202020202020a9
:103720002020202020202020202020202020202099
:103730002020202020202020202020202020202089
:103740002020202020202020202020202020202079
:103750002020202020202020202020202020202069
:103760002020202020202020202020202020202059
:1037700020202020202020202020200d0a20202072
:1037800020202020202020202020202040404040b9
:1037900040253d2a402525404025404040254040c9
:1037a00025232d2d2d2d2b402b2e2e2e2e2e2e2e45
:1037b0002e3a2340252b3d2d2d2d2d3d3d2b2b2a03
:1037c0002a2325404025232325404040252a3a2e00
:1037d00020202020202e2a404040252a3d2d3a3a04
:1037e0003a3a2a233a2e2e2e2e2e2e2e2e2e3a2bdb
:1037f00040252b2d2d2d2d2d2d2d3d2b3d25402bc9
:103800002d2d2d2d2d2d2d2d2d2d2d3d40402b2db4
:103810002d2d2d2d2d2d2d2d3d25402b2d2d2d2dbf
:103820003d23404040202020202020202020202018
:103830002020202020202020202020202020202088
:103840002020202020202020202020202020202078
:103850002020202020202020202020202020202068
:103860002020202020202020202020202020202058
:103870002020202020202020202020202020202048
:103880002020202020202020202020202020202038
:103890002020202020202020202020202020202028
:1038a0002020202020202020202020200d0a202041
:1038b00020202020202020202020202020404040a8
:1038c0004040403d2b40252a40233d2d3d2a402aa3
:1038d0002b2b232a2d2d2d2b252a3a2e2e2e2e2e24
:1038e0002e2e2e2e3a23404025252525252525231d
:1038f0002a2b3d2d2e20202020202020202020207b
:10390000202020202e2b4040233d3a3a3a3a3a3aa2
:103910003a3a2d25233a2e2e2e2e2e2e2e2e3a2ab0
:1039200040233d2d2d2d3d2b3d2b3d254023402576
:103930003d2d2d2d2d2d2d2d2d2d2d2d2d3d404071
:103940002b2d2d2d2d2d2d2d2d2d2a40233d2d2d93
:103950002d2d3d23404020202020202020202020ed
:103960002020202020202020202020202020202057
:103970002020202020202020202020202020202047
:103980002020202020202020202020202020202037
:103990002020202020202020202020202020202027
:1039a0002020202020202020202020202020202017
:1039b0002020202020202020202020202020202007
:1039c00020202020202020202020202020202020f7
:1039d000202020202020202020202020200d0a2010
:1039e00020202020202020202020202020202040b7
:1039f000404040402a3d23252b3d2b2d2d2d2d3d94
:103a00002325252b2d2d2d2d3d23253d2e2e2e2ef0
:103a10002e2e2e2e2e2e2e3a2a40252d2e2e2020d2
:103a20002020202020202020202020202020202096
:103a3000202020202e23402a3a3a3a3a3a3a3a3a7b
:103a40003a2d2a402a3a2e2e2e2e2e2e2e3a2b405a
:103a5000252a2d2d2d2d2b252b2540234040404060
:103a60002a2d2d2d2d2d2d2d2d2d2d2d2d2d2d2b8b
:103a700040403d2d2d2d2d2d2d2d2d3d40403d2dfa
:103a80002d2d2d3d2b404040202020202020202087
:103a90002020202020202020202020202020202026
:103aa0002020202020202020202020202020202016
:103ab0002020202020202020202020202020202006
:103ac00020202020202020202020202020202020f6
:103ad00020202020202020202020202020202020e6
:103ae00020202020202020202020202020202020d6
:103af00020202020202020202020202020202020c6
:103b000020202020202020202020202020200d0ade
:103b100020202020202020202020202020202020a5
:103b20004040404040253d2b252b2d2d2d2d2d2d6a
:103b30002d2d2d2d2d2d2d2d2d2d2b40233a2e2e9f
:103b40002e2e2e2e2e2e2e2e2e2e3a3d2540232d7d
:103b50002e2e2e202020202020202020202020203b
:103b600020202e2e2d25402b3a3a3a3a3a3a2d3d36
:103b70002a4040402b3a3a3a3a3a3a3a2d2a4040c3
:103b8000233d2d2d2d2d2a252b2540404040404002
:103b9000233d2b2b2d2d2d2d2d2d2d2d2d2d2d2d53
:103ba0003d25402a2d2d2d2d2d2d2d2d3d25402b14
:103bb0002d2d2d2d3d2b4040402020202020202049
:103bc00020202020202020202020202020202020f5
:103bd00020202020202020202020202020202020e5
:103be00020202020202020202020202020202020d5
:103bf00020202020202020202020202020202020c5
:103c000020202020202020202020202020202020b4
:103c100020202020202020202020202020202020a4
:103c20002020202020202020202020202020202094
:103c30002020202020202020202020202020200d97
:103c40000a2020202020202020202020202020208a
:103c5000202040404040402a3d2a2a2d2d2d2d2d48
:103c60002d2d2d2d2d2d2d2d2d2d2d3d2a402a3a5a
:103c70002e2e2e2e2e2e2e2e2e2e2e2e2e2e3a3d49
:103c80002340252a3d3a3a2e2e2e2e2e2e2e2e2e33
:103c90002e3a3d2a252a2b2540252a232340404021
:103ca0004040252a2b2325404040404040404023af
:103cb0003d2d2d2d2d2d3d2b3d23402a2a404040ca
:103cc000253d2a402a2d2d2d2d2d2d2d2d2d2d2d0f
:103cd0002d3d2340232d2d2d2d2d2d2d2d3d2540ea
:103ce0003d2d2d2d2d3d2540402020202020202021
:103cf00020202020202020202020202020202020c4
:103d000020202020202020202020202020202020b3
:103d100020202020202020202020202020202020a3
:103d20002020202020202020202020202020202093
:103d30002020202020202020202020202020202083
:103d40002020202020202020202020202020202073
:103d50002020202020202020202020202020202063
:103d60002020202020202020202020202020202053
:103d70000d0a20202020202020202020202020206c
:103d80002020202040402a40253d2d2d2d2d2d2d59
:103d90002d2d2d2d2d2d2d2d2d2d2d2d2d3d23403a
:103da0002a3a2e2e2e2e2e2e2e2e2e2e2e2e2e2e2b
:103db0002e2e2e2e3a3d232540404040404040408c
:103dc000252a2d3a2e2e2e2e2e3a2b2a2a2b3d3afc
:103dd0003a2a252b2d2d2d2d2d2d2d3d3d3d2d2de3
:103de0002d2d2d2d2d2d2d2d2d3d2a3d2b404040af
:103df0004040404040253d2d2d2d2d2d2d2d2d2d8c
:103e00002d2d3d25402a2d2d2d2d2d2d2d2d2b40b9
:103e1000403d2d2d2d3d25404020202020202020dc
:103e20002020202020202020202020202020202092
:103e30002020202020202020202020202020202082
:103e40002020202020202020202020202020202072
:103e50002020202020202020202020202020202062
:103e60002020202020202020202020202020202052
:103e70002020202020202020202020202020202042
:103e80002020202020202020202020202020202032
:103e90002020202020202020202020202020202022
:103ea000200d0a202020202020202020202020203b
:103eb00020202020204040252b253d2d2d2d2d2d4f
:103ec0002d2d2d2d2d2d2d2d2d2d2d2d2d2d2d3d12
:103ed0002340232d2e2e2e2e2e2e2e2e2e2e2e2e07
:103ee0002e2e2e2e2e2e2e2e2e2e2e2e2e2e2e2ef2
:103ef0002e2e2e2e2e2e2e2e2e2e2e2e2e2e2e3ad6
:103f00003d40253d2d2d2d2d2d2d2d2d2d2d2d2db6
:103f10002d2d3d3d2d2d2d2d2d2d2d2b4040404067
:103f2000252b2d2d2b4040233d2d2d2d2d2d2d2da1
:103f30002d2d2d2b40253d2d2d2d2d2d2d2d2d2a9b
:103f400040402a3d2a404040404020202020202060
:103f50002020202020202020202020202020202061
:103f60002020202020202020202020202020202051
:103f70002020202020202020202020202020202041
:103f80002020202020202020202020202020202031
:103f90002020202020202020202020202020202021
:103fa0002020202020202020202020202020202011
:103fb0002020202020202020202020202020202001
:103fc00020202020202020202020202020202020f1
:103fd00020200d0a2020202020202020202020200a
:103fe000202020202020204040253d2d2d3d2a2529
:103ff00040404040404040402a3d2d2d2d2d2d2d4c
:104000002d3d2340403d3a2e2e2e2e2e2e2e2e2e8e
:104010002e2e2e2e2e2e2e2e2e2e2e2e2e2e2e2ec0
:104020002e2e2e2e2e2e2e2e2e2e2e2e2e2e2e2db1
:1040300025402a3d2d2d2d2d2d2d2d2d2d2d2d2d98
:104040002d2d3d25232d2d2d3d2b254040252a3d71
:104050003d2d2d2d2d2d2b2540233d2d2d2d2d2d71
:104060002d2d2d2a40403d2d2d2d2d2d2d2d2d2b4f
:1040700040402b2b2a2a2b3d2b2340404020202040
:104080002020202020202020202020202020202030
:104090002020202020202020202020202020202020
:1040a0002020202020202020202020202020202010
:1040b0002020202020202020202020202020202000
:1040c00020202020202020202020202020202020f0
:1040d00020202020202020202020202020202020e0
:1040e00020202020202020202020202020202020d0
:1040f00020202020202020202020202020202020c0
:104100002020200d0a2020202020202020202020d8
:1041100020202020202020202040404040404040bf
:10412000232b3d3d3d3d3d3d2340402b2d2d2d2d51
:104130002d2d2d3d2b2540253d2e2e2e2e2e2e2e87
:104140002e2e2e2e2e2e2e2e2e2e2e2e2e2e2e2e8f
:104150002e2e2e2e2e2e2e2e2e2e2e2e2e2e2b258b
:10416000402a3d2d2d2d2d2d2d2d2d2d2d2d2d2d5f
:104170002d2d2b40253d3d2a254040232b3d2d2d27
:104180002d2d2d2d2d2d2d2d3d2a2540232b3d3d33
:104190002b2a254040402b2d2d2d2d2d2d2d3d2a18
:1041a00040233d2d2d2d2d2d2d2d3d2a40404040cd
:1041b00020202020202020202020202020202020ff
:1041c00020202020202020202020202020202020ef
:1041d00020202020202020202020202020202020df
:1041e00020202020202020202020202020202020cf
:1041f00020202020202020202020202020202020bf
:1042000020202020202020202020202020202020ae
:10421000202020202020202020202020202020209e
:10422000202020202020202020202020202020208e
:10423000202020200d0a20202020202020202020a7
:104240002020202020202020202040404040252bde
:104250003d2d2d2d2d2d2d2d2d2d2340252d2d2d7d
:104260002d2d2d2d2d2d3d2b254040232d2e2e2e59
:104270002e2e2e2e2e2e2e2e2e2e2e2e2e2e2e2e5e
:104280002e2e2e2e2e2e2e2e2e2e2e2e3d23402541
:104290002b3d2d2d2d2d2d2d2d2d2d2d2d2d2d2d40
:1042a0002d2b25404040404040232b3d2d2d2d2dd2
:1042b0002d2d2d2d2d2d2d2d2d2d2d3d3d2b232522
:1042c000404025232a2340404025232a2a23252510
:1042d000232b3d2d2d2d2d2d2d2d2d2d3d2b2540f1
:1042e000404020202020202020202020202020208e
:1042f00020202020202020202020202020202020be
:1043000020202020202020202020202020202020ad
:10431000202020202020202020202020202020209d
:10432000202020202020202020202020202020208d
:10433000202020202020202020202020202020207d
:10434000202020202020202020202020202020206d
:10435000202020202020202020202020202020205d
:1043600020202020200d0a20202020202020202076
:1043700020202020202020202040404040402a3d76
:104380002d2d2d2d2d2d2d2d2d2d2d2a40403d2d2a
:104390002d2d2d2d2d2d2d2d2d3d2b23404040231a
:1043a0002b3a2e2e2e2e2e2e2e2e2e2e2e2e2e2e24
:1043b0002e2e2e2e2e2e2e2e3a2d2b2340252a3d0c
:1043c0002d2d2d2d2d2d2d2d2d2d2d2d2d2d2d3d0d
:1043d0002a25252a254040252b3d2d2d2d2d2d2dff
:1043e0002d2d2d2d2d2d2d2d2d2d2d2d2d2d2d2dfd
:1043f0002d2d2d2d2d2d2d3d2b2323232a2a2b3df5
:104400003d2d2d2d2d2d2d2d2d2d2d2d2d2d2d2bce
:104410002540404020202020202020202020202037
:10442000202020202020202020202020202020208c
:10443000202020202020202020202020202020207c
:10444000202020202020202020202020202020206c
:10445000202020202020202020202020202020205c
:10446000202020202020202020202020202020204c
:10447000202020202020202020202020202020203c
:10448000202020202020202020202020202020202c
:104490002020202020200d0a202020202020202045
:1044a00020202020202020204040404040253d2d3d
:1044b0002d2d2d2d2d2d2d2d2d2d2d2d2540252d29
:1044c0002d2d2d2d2d2d2d2d2d2d2d2d2d3d2b2a11
:1044d00025404040232a2b3d2d3a2e2e2e2e2e2ec7
:1044e0002e2e2e3a2d3d2a23254040232a3d3d2db8
:1044f0002d2d2d2d2d2d2d2d2d2d2d2d2d2d2d2dec
:104500002b2b3d2a40402a3d2d2d2d2d2d2d2d2d9f
:104510002d2d2d2d2d2d2d2d2d2d2d2d2d2d2d2dcb
:104520002d2d2d2d2d2d2d2d2d2d2d2d2d2d2d2dbb
:104530002d2d2d2d2d2d2d2d2d2d2d2d2d2d2d2dab
:104540002d2b2540404020202020202020202020ee
:10455000202020202020202020202020202020205b
:10456000202020202020202020202020202020204b
:10457000202020202020202020202020202020203b
:10458000202020202020202020202020202020202b
:10459000202020202020202020202020202020201b
:1045a000202020202020202020202020202020200b
:1045b00020202020202020202020202020202020fb
:1045c000202020202020200d0a2020202020202014
:1045d00020202020202020404040232540253d2d24
:1045e0002d2d2d2d2d2d2d2d2d2d2d2d2b40402ada
:1045f0002d2d2d2d2d2d3d3d2b2b2b2b3d3d2d2db3
:104600002d2d3d2b2a232525404040404040252587
:1046100040404040404025232a2b3d3d2d2d2d2d4f
:104620002d2d2d2d2d2d2d2d2d2d2d2d2d2d2d2dba
:104630002d2d2b25232b3d2d2d2d2d2d2d2d2d2db0
:104640002d2d2d2d2d2d2d2d2d2d2d2d2d2d2d2d9a
:104650002d2d2d2d2d2d2d2d2d2d2d2d2d2d2d2d8a
:104660002d2d2d2d2d2d2d2d2d2d2d2d2d2d2d2d7a
:104670002d2d2d2b254040402020202020202020a3
:10468000202020202020202020204040404040406a
:10469000404040404040402020202020202020203a
:1046a000202020202020202020202020202020200a
:1046b00020202020202020202020202020202020fa
:1046c00020202020202020202020202020202020ea
:1046d00020202020202020202020202020202020da
:1046e00020202020202020202020202020202020ca
:1046f00020202020202020200d0a202020202020e3
:10470000202020202020204040402a2b40253d2de5
:104710002d2d2d2d2d2d2d2d2d2d2d2d3d40404080
:104720003d2d2d3d2b2325402523232323254025c7
:104730002a3d2d2d2d2d2d2d2d2d3d3d2b2b2b2b84
:104740002b2b2b2b3d3d2d2d2d2d2d2d2d2d2d2d81
:104750002d2d2d2d2d2d2d2d2d2d2d2d2d2d2d2d89
:104760002d2d2d3d3d2d2d2d2d2d2d2d2d2d2d2d59
:104770002d2d2d2d2d2d2d2d2d2d2d2d2d2d2d2d69
:104780002d2d2d2d2d2d2d2d2d2d2d2d2d2d2d2d59
:104790002d2d2d2d2d2d2d2d2d2d2d2d2d2d2d2d49
:1047a0002d2d2d2d2d2a404040202020202020205e
:1047b00040404040404040404040404040404040f9
:1047c0004040404040404040404040404040402009
:1047d00020202020202020202020202020202020d9
:1047e00020202020202020202020202020202020c9
:1047f00020202020202020202020202020202020b9
:1048000020202020202020202020202020202020a8
:104810002020202020202020202020202020202098
:104820002020202020202020200d0a2020202020b1
:10483000202020202020204040402b3d25402b2db3
:104840002d2d2d2d2d2d2d2d2d2d2d2d3d25402387
:104850002a2b3d2b2540252a3d2d2d2d2d2d2d3d5f
:104860002540253d2d2d2d2d2d2d2d2d2d2d2d2d65
:104870002d2d2d2d2d2d2d2d2d2d2d2d2d2d2d2d68
:104880002d2d2d2d2d2d2d2d2d2d2d2d2d2d2d2d58
:104890002d2d2d2d2d2d2d2d2d2d2d2d2d2d2d2d48
:1048a0002d2d2d2d2d2d2d2d2d2d2d2d2d2d2d2d38
:1048b0002d2d2d2d2d2d2d2d2d2d2d2d2d2d2d2d28
:1048c0002d2d2d2d2d2d2d2d2d2d2d2d2d2d2d2d18
:1048d0002d2d2d2d2d2d3d2340404040404040406a
:1048e00040404040402525232a2a2a2b2b3d3d3d90
:1048f0002d2d2d2d2d2d2d2d3d3d2b2a23252540d4
:104900004040402020202020202020202020202047
:104910002020202020202020202020202020202097
:104920002020202020202020202020202020202087
:104930002020202020202020202020202020202077
:104940002020202020202020202020202020202067
:10495000202020202020202020200d0a2020202080
:10496000202020202020204040402b3d2b40232d84
:104970002d2d2d2d2d2d2d2d2d2d2d2d3d2340403b
:10498000253d2b2540252a3d2d2d2d2d2d2d2d2d41
:104990002d2d2a40232d2d2d2d2d2d2d2d2d2d2d41
:1049a0002d2d2d2d2d2d2d2d2d2d2d2d2d2d2d2d37
:1049b0002d2d2d2d2d2d2d2d2d2d2d2d2d2d2d2d27
:1049c0002d2d2d2d2d2d2d2d2d2d2d2d2d2d2d2d17
:1049d0002d2d2d2d2d2d2d2d2d2d2d2d2d2d2d2d07
:1049e0002d2d2d2d2d2d2d2d2d2d2d2d2d2d2d2df7
:1049f0002d2d2d2d2d2d2d2d2d2d2d2d2d2d2d2de7
:104a00002d2d2d2d2d2d2d2d2b4040404040404053
:104a100040404040252b2d2d2d2d2d2d2d2d2d2d84
:104a20002d2d2d2d2d2d2d2d2d2d2d2d2d2d2d2db6
:104a30003d2b2540404020202020202020202020e9
:104a40002020202020202020202020202020202066
:104a50002020202020202020202020202020202056
:104a60002020202020202020202020202020202046
:104a70002020202020202020202020202020202036
:104a800020202020202020202020200d0a2020204f
:104a9000202020202020204040402a3d2d23402b54
:104aa0002d2d2d2d2d2d2d2d2d2d2d2d2d2a40252e
:104ab0002340404040233d2d2d2d2d2d2d2d2d2dde
:104ac0002d2d2d2a40232d2d2d2d2d2d2d2d2d2d10
:104ad0002d2d2d2d2d2d2d2d2d2d2d2d2d2d2d2d06
:104ae0002d2d2d2d2d2d2d2d2d2d2d2d2d2d2d2df6
:104af0002d2d2d2d2d2d2d2d2d2d2d2d2d2d2d2de6
:104b00002d2d2d2d2d2d2d2d2d2d2d2d2d2d2d2dd5
:104b10002d2d2d2d2d2d2d2d2d2d2d2d2d2d2d2dc5
:104b20002d2d2d2d2d2d2d2d2d2d2d2d2d2d2d2db5
:104b30002d2d2d2d2d2d2d2d2d3d2540404040403e
:104b400040404040233d2d2d2d2d2d2d2d2d2d2d43
:104b50002d2d2d2d2d2d2d2d2d2d2d2d2d2d2d2d85
:104b60002d2d2d2d3d234040402020202020202091
:104b70002020202020202020202020202020202035
:104b80002020202020202020202020202020202025
:104b90002020202020202020202020202020202015
:104ba0002020202020202020202020202020202005
:104bb0002020202020202020202020200d0a20201e
:104bc00020202020202020204040233d2d2d254046
:104bd0002d2d2d2d2d2d2d2d2d2d2d2d2d2b4040e1
:104be00040252a25402a2d2d2d2d2d2d2d2d2d2de5
:104bf0002d2d2d3d40403d2d2d3d3d2b3d2d2d2d71
:104c00002d2d2d2d2d2d2d2d2d2d2d2d2d2d2d3dc4
:104c10002b2a3d2d2d2d2d2d2d2d2d2d2d2d2d2db9
:104c20002d2d2d2d2d2d2d2d2d2d2d2d2d2d2d2db4
:104c30002d2d2d2d2d2d2d2d2d2d2d2d2d2d2d2da4
:104c40002d2d2d2d2d2d2d2d2d2d2d2d2d2d2d2d94
:104c50002d2d2d2d2d2d2d2d2d2d2d2d2d2d2d2d84
:104c60002d2d2d2d2d2d2d2d2d2d2d2a404040402b
:104c700040404040233d2d2d2d2d2d2d2d2d2d2d12
:104c80002d2d2d2d2d2d2d2d2d2d2d2d2d2d2d2d54
:104c90002d2d2d2d2d2d3d2b40404020202020203e
:104ca0002020202020202020202020202020202004
:104cb00020202020202020202020202020202020f4
:104cc00020202020202020202020202020202020e4
:104cd00020202020202020202020202020202020d4
:104ce000202020202020202020202020200d0a20ed
:104cf00020202020202020204040402b2d2d2d251d
:104d0000232d2d2d2d2d2d2d2d2d2d2d2d3d2540c2
:104d100040234040402b2d2d2d2d2d2d2d2d2d2d83
:104d20002d2d2d3d25402b3d3d3d3d3d2b25232b60
:104d30003d2d2d2d2d2d2d2d2d2d2d2d2d2d3d2a86
:104d400025233d3d3d3d2d2d2d2d2d2d2d2d2d2d65
:104d50002d2d2d2d2d2d2d2d2d2d2d2d2d2d2d2d83
:104d60002d2d2d2d2d2d2d2d2d2d2d2d2d2d2d2d73
:104d70002d2d2d2d2d2d2d2d2d2d2d2d2d2d2d2d63
:104d80002d2d2d2d2d2d2d2d2d2d2d2d2d2d2d2d53
:104d90002d2d2d2d2d2d2d2d2d2d2d2d2b4040400c
:104da00040404040403d2d2d2d2d2d2d2d2d2d2dc4
:104db0002d2d2d2d2d2d2d2d2d2d2d2d2d2d2d2d23
:104dc0002d2d2d2d2d2d2d2d2d2b40404020202003
:104dd00020202020202020202020202020202020d3
:104de00020202020202020202020202020202020c3
:104df00020202020202020202020202020202020b3
:104e000020202020202020202020202020202020a2
:104e100020202020202020202020202020200d0abb
:104e20002020202020202020204040252b2d2d2d0b
:104e3000252a2d2d2d2d2d2d2d2d2d2d2d2d2a409d
:104e4000232b2540402b2d2d2d2d2d2d2d2d2d2d82
:104e50002d2d2d3d254023232540404040402a3d17
:104e60003d3d2d2d2d2d2d2d2d2d2d2d3d2b23403b
:104e7000232b23402a3d2d2d2d2d2d2d2d2d2d2d58
:104e80002d2d2d2d2d2d2d2d2d2d2d2d2d2d2d2d52
:104e90002d2d2d2d2d2d2d2d2d2d2d2d2d2d2d2d42
:104ea0002d2d2d2d2d2d2d2d2d2d2d2d2d2d2d2d32
:104eb0002d2d2d2d2d2d2d2d2d2d2d2d2d2d2d2d22
:104ec0002d2d2d2d2d2d2d2d2d2d2d2d2d3d2540f7
:104ed00040404040402b2d2d2d2d2d2d2d2d2d2da5
:104ee0002d2d2d2d2d2d2d2d2d2d2d2d2d2d2d2df2
:104ef0002d2d2d2d2d2d2d2d2d2d2d2b40404020b8
:104f000020202020202020202020202020202020a1
:104f10002020202020202020202020202020202091
:104f20002020202020202020202020202020202081
:104f30002020202020202020202020202020202071
:104f40002020202020202020202020202020200d74
:104f50000a2020202020202020204040252b2d2dfd
:104f60002d3d3d2d2d2d2d2d2d2d2d2d2d2d2d2a54
:104f7000252b3d25402a2d2d2d2d2d2d2d2d2d2d53
:104f80002d2d2d2b404040402523254040404040c2
:104f900040232b3d2d2d2d2d2d2d2d2b2540232a2e
:104fa0002540252b3d2d2d2d2d2d2d2d2d2d2d2d20
:104fb0002d2d2d2d2d2d2d2d2d2d2d2d2d2d2d2d21
:104fc0002d2d2d2d2d2d2d2d2d2d2d2d2d2d2d2d11
:104fd0002d2d2d2d2d2d2d2d2d2d2d2d2d2d2d2d01
:104fe0002d2d2d2d2d2d2d2d2d2d2d2d2d2d2d2df1
:104ff0002d2d2d2d2d2d2d2d2d2d2d2d2d2d3d25d9
:105000004040404040252d2d2d2d2d2d2d2d2d2d79
:105010002d2d2d2d2d2d2d2d2d2d2d2d2d2d2d2dc0
:105020002d2d2d2d2d2d2d2d2d2d2d2d3d2a40407d
:105030004020202020202020202020202020202050
:105040002020202020202020202020202020202060
:105050002020202020202020202020202020202050
:105060002020202020202020202020202020202040
:105070002020202020202020202020202020202030
:105080000d0a2020202020202020202040402b2df1
:105090002d2d2d2d2d2d2d2d2d2d2d2d2d2d2d2d40
:1050a0003d252340402a2d2d2d2d2d2d2d2d2d2d0f
:1050b0002d2d2d2340402340404025232a2b2b2bf0
:1050c0002b2a23254040404040404040233d3d2d79
:1050d0002d2d2d2d2d2d2d2d2d2d2d2d2d2d2d2d00
:1050e0002d2d2d2d2d2d2d2d2d2d2d2d2d2d2d2df0
:1050f0002d2d2d2d2d2d2d2d2d2d2d2d2d2d2d2de0
:105100002d2d2d2d2d2d2d2d2d2d2d2d2d2d2d2dcf
:105110002d2d2d2d2d2d2d2d2d2d2d2d2d2d2d2dbf
:105120002d2d2d2d2d2d2d2d2d2d2d2d2d2d2d3d9f
:105130002540404040402b2d2d2d2d2d2d2d2d2d4a
:105140002d2d2d2d2d2d2d2d2d2d2d2d2d2d2d2d8f
:105150002d2d2d2d2d2d2d2d2d2d2d2d2d2d3d2379
:1051600040402020202020202020202020202020ff
:10517000202020202020202020202020202020202f
:10518000202020202020202020202020202020201f
:10519000202020202020202020202020202020200f
:1051a00020202020202020202020202020202020ff
:1051b000200d0a2020202020202020202040402ace
:1051c0003d2d2d2d2d2d2d2d2d2d2d2d2d2d2d2dff
:1051d0002d2d3d2a232b3d2d2d2d2d2d2d2d2d2dee
:1051e0002d2d3d254040252b3d3d2d2d2d2d2d2dab
:1051f0002d2d2d2d2d3d3d2a4040253d2d2d2d2d94
:105200002d2d2d2d2d2d2d2d2d2d2d2d2d2d2d2dce
:105210002d2d2d2d2d2d2d2d2d2d2d2d2d2d2d2dbe
:105220002d2d2d2d2d2d2d2d2d2d2d2d2d2d2d2dae
:105230002d2d2d2d2d2d2d2d2d2d2d2d2d2d2d2d9e
:105240002d2d2d2d2d2d2d2d2d2d2d2d2d2d2d2d8e
:105250002d2d2d2d2d2d2d2d2d2d2d2d2d2d2d2d7e
:105260003d2540404040403d2d2d2d2d2d2d2d2df7
:105270002d2d2d2d2d2d2d2d2d2d2d2d2d2d2d2d5e
:105280002d2d2d2d2d2d2d2d2d2d2d2d2d2d2d2d4e
:105290002b254040404040404040202020202020fe
:1052a00020202020202020202020202020202020fe
:1052b00020202020202020202020202020202020ee
:1052c00020202020202020202020202020202020de
:1052d00020202020202020202020202020202020ce
:1052e00020200d0a202020202020202020204040a7
:1052f000402b2d2d2d2d2d2d2d2d2d2d2d2d2d2dcd
:105300002d2d2d2d2d2d2d2d2d2d2d2d2d2d2d2dcd
:105310002d2d2b25232b3d2d2d2d2d2d2d2d2d2dc3
:105320002d2d2d2d2d2d2d2d2d3d40252d2d2d2d92
:105330002d2d2d2d2d2d2d2d2d2d2d2d2d2d2d2d9d
:105340002d2d2d2d2d2d2d2d2d2d2d2d2d2d2d2d8d
:105350002d2d2d2d2d2d2d2d2d2d2d2d2d2d2d2d7d
:105360002d2d2d2d2d2d2d2d2d2d2d2d2d2d2d2d6d
:105370002d2d2d2d2d2d2d2d2d2d2d2d2d2d2d2d5d
:105380002d2d2d2d2d2d2d2d2d2d2d2d2d2d2d2d4d
:105390002d3d2540404040252d2d2d2d2d2d2d2df1
:1053a0002d2d2d2d2d2d2d2d2d2d2d2d2d2d2d2d2d
:1053b0002d2d2d2d2d2d2d2d2d2d2d2d2d2d2d2d1d
:1053c0002d2d2b4040252a2a2325404040404020b7
:1053d00020202020202020202020202020202020cd
:1053e00020202020202020202020202020202020bd
:1053f00020202020202020202020202020202020ad
:10540000202020202020202020202020202020209c
:105410002020200d0a2020202020202020202020b5
:105420004040253d2d2d2d2d2d2d2d2d2d2d2d2d7e
:105430002d2d2d2d2d2d2d2d2d2d2d2d2d2d2d2d9c
:105440002d2d3d3d3d2d2d2d2d2d2d2d2d2d2d2d5c
:105450002d2d2d2d2d2d2d2d2d2d3d40252d2d2d61
:105460002d2d2d2d2d2d2d2d2d2d2d2d2d2d2d2d6c
:105470002d2d2d2d2d2d2d2d2d2d2d2d2d2d2d2d5c
:105480002d2d2d2d2d2d2d2d2d2d2d2d2d2d2d2d4c
:105490002d2d2d2d2d2d2d2d2d2d2d2d2d2d2d2d3c
:1054a0002d2d2d2d2d2d2d2d2d2d2d2d2d2d2d2d2c
:1054b0002d2d2d2d2d2d2d2d2d2d2d2d2d2d2d2d1c
:1054c0002d2d2b4040404040252b2b2a23252525e0
:1054d00025404040404040404040402525232a3d53
:1054e0002d2d2d2d2d2d2d2d2d2d2d2d2d2d2d2dec
:1054f0002d2d2d3d2340252b2d2d2d3d3d2b2340a6
:10550000404040202020202020202020202020203b
:10551000202020202020202020202020202020208b
:10552000202020202020202020202020202020207b
:10553000202020202020202020202020202020206b
:10554000202020200d0a2020202020202020202084
:1055500020204040402b3d2d2d2d2d2d2d2d2d2d4e
:105560002d2d2d2d2d2d2d2d2d2d2d2d2d2d2d2d6b
:105570002d2d2d2d2d2d2d2d2d2d2d2d2d2d2d2d5b
:105580002d2d2d2d2d2d2d2d2d2d3d25402b2d2d32
:105590002d2d2d2d2d2d2d2d2d2d2d2d2d2d2d2d3b
:1055a0002d2d2d2d2d2d2d2d2d2d2d2d2d2d2d2d2b
:1055b0002d2d2d2d2d2d2d2d2d2d2d2d2d2d2d2d1b
:1055c0002d2d2d2d2d2d2d2d2d2d2d2d2d2d2d2d0b
:1055d0002d2d2d2d2d2d2d2d2d2d2d2d2d2d2d2dfb
:1055e0002d2d2d2d2d2d2d2d2d2d2d2d2d2d2d2deb
:1055f0002d2d2d2a404040404040404040404040fa
:10560000404040404040404040404040404040409a
:1056100040252a3d2d2d2d2d2d2d2d2d2d2d2d2da2
:105620002d2d2d2d2d2b25402a3d2d2d2d2d2d2d94
:105630003d2a4040404020202020202020202020c3
:10564000202020202020202020202020202020205a
:10565000202020202020202020202020202020204a
:10566000202020202020202020202020202020203a
:1056700020202020200d0a20202020202020202053
:1056800020202020404040233d2d2d2d2d2d2d2d3f
:105690002d2d2d2d2d2d2d2d2d2d2d2d2d2d2d2d3a
:1056a0002d2d2d2d2d2d2d2d2d2d2d2d2d2d2d2d2a
:1056b0002d2d2d2d2d2d2d2d2d2b2340233d2d2d0d
:1056c0002d2d2d2d2d2d2d2d2d2d2d2d2d2d2d2d0a
:1056d0002d2d2d2d2d2d2d2d2d2d2d2d2d2d2d2dfa
:1056e0002d2d2d2d2d2d2d2d2d2d2d2d2d2d2d2dea
:1056f0002d2d2d2d2d2d2d2d2d2d2d2d2d2d2d2dda
:105700002d2d2d2d2d2d2d2d2d2d2d2d2d2d2d2dc9
:105710002d2d2d2d2d2d2d2d2d2d2d2d2d2d2d2db9
:105720002d2d2d3d254040404040404040404040d0
:105730004040404040404040404040404040404069
:10574000404040402a3d2d2d2d2d2d2d2d2d2d2d30
:105750002d2d2d2d2d2d2d2a40402b2d2d2d2d2d58
:105760002d2d2d3d23404040202020202020202092
:105770002020202020202020202020202020202029
:105780002020202020202020202020202020202019
:105790002020202020202020202020202020202009
:1057a0002020202020200d0a202020202020202022
:1057b000202020202020404040402a3d2d2d2d2d0e
:1057c0002d2d2d2d2d2d2d2d2d2d2d2d2d2d2d2d09
:1057d0002d2d2d2d2d2d2d2d2d2d2d2d2d2d2d2df9
:1057e0002d2d2d2d2d2d2d3d2a2540233d2d2d2dcb
:1057f0002d2d2d2d2d2d2d2d2d2d2d2d2d2d2d2dd9
:105800002d2d2d2d2d2d2d2d2d2d2d2d2d2d2d2dc8
:105810002d2d2d2d2d2d2d2d2d2d2d2d2d2d2d2db8
:105820002d2d2d2d2d2d2d2d2d2d2d2d2d2d2d2da8
:105830002d2d2d2d2d2d2d2d2d2d2d2d2d2d2d2d98
:105840002d2d2d2d2d2d2d2d2d2d2d2d2d2d2d2d88
:105850002d2d2d2d2b2540404040404040404040c4
:105860004040404040404040404040404040402553
:105870002540404040252b2d2d2d2d2d2d2d2d2d1e
:105880002d2d2d2d2d2d2d2d3d2340233d2d2d2d29
:105890002d2d2d2d2d3d2a40404020202020202040
:1058a00020202020202020202020202020202020f8
:1058b00020202020202020202020202020202020e8
:1058c00020202020202020202020202020202020d8
:1058d000202020202020200d0a20202020202020f1
:1058e000202020202020202020404040402a3d2d04
:1058f0002d2d2d2d2d2d2d2d2d2d2d2d2d2d2d2dd8
:105900002d2d2d2d2d2d2d2d2d2d2d2d2d2d2d2dc7
:105910002d2d2d2d2d2d2b2340252a3d2d2d2d2dab
:105920002d2d2d2d2d2d2d2d2d2d2d2d2d2d2d2da7
:105930002d2d2d2d2d2d2d2d2d2d2d2d2d2d2d2d97
:105940002d2d2d2d2d2d2d2d2d2d2d2d2d2d2d2d87
:105950002d2d2d2d2d2d2d2d2d2d2d2d2d2d2d2d77
:105960002d2d2d2d2d2d2d2d2d2d2d2d2d2d2d2d67
:105970002d2d2d2d2d2d2d2d2d2d2d2d2d2d2d2d57
:105980002d2d2d2d2d234040404040404040404093
:105990004040404040404040404040232b3d2d2d62
:1059a0002d2d2d3d2b2540233d2d2d2d2d2d2d2d08
:1059b0002d2d2d2d2d2d2d2d2d2d2b25402b2d2d10
:1059c0002d2d2d2d2d2d2d3d23404020202020201c
:1059d00020202020202020202020202020202020c7
:1059e00020202020202020202020202020202020b7
:1059f00020202020202020202020202020202020a7
:105a000020202020202020200d0a202020202020bf
:105a10002020202020202020202020204040404006
:105a2000252b3d3d2d2d2d2d2d2d2d2d2d2d2d2d90
:105a30002d2d2d2d2d2d2d2d2d2d2d2d2d2d2d2d96
:105a40002d2d2d2d2d3d2a25233d2d2d2d2d2d2d7b
:105a50002d2d2d2d2d2d2d2d2d2d2d2d2d2d2d2d76
:105a60002d2d2d2d2d2d2d2d2d2d2d2d2d2d2d2d66
:105a70002d2d2d2d2d2d2d2d2d2d2d2d2d2d2d2d56
:105a80002d2d2d2d2d2d2d2d2d2d2d2d2d2d2d2d46
:105a90002d2d2d2d2d2d2d2d2d2d2d2d2d2d2d2d36
:105aa0002d2d2d2d2d2d2d2d2d2d2d2d2d2d2d2d26
:105ab0002d2d2d2d2d2b2540404040404040404075
:105ac000404040404040404040402a3d2d2d2d2d3b
